{
  "contractName": "USElection",
  "abi": [
    {
      "anonymous": false,
      "inputs": [
        {
          "indexed": false,
          "internalType": "uint256",
          "name": "winner",
          "type": "uint256"
        }
      ],
      "name": "LogElectionEnded",
      "type": "event"
    },
    {
      "anonymous": false,
      "inputs": [
        {
          "indexed": false,
          "internalType": "uint256",
          "name": "currentWinner",
          "type": "uint256"
        }
      ],
      "name": "LogElectionResumed",
      "type": "event"
    },
    {
      "anonymous": false,
      "inputs": [
        {
          "components": [
            {
              "internalType": "string",
              "name": "name",
              "type": "string"
            },
            {
              "internalType": "uint256",
              "name": "votesBiden",
              "type": "uint256"
            },
            {
              "internalType": "uint256",
              "name": "votesTrump",
              "type": "uint256"
            },
            {
              "internalType": "uint8",
              "name": "stateSeats",
              "type": "uint8"
            }
          ],
          "indexed": false,
          "internalType": "struct USElection.StateResult",
          "name": "data",
          "type": "tuple"
        }
      ],
      "name": "LogReceivedData",
      "type": "event"
    },
    {
      "anonymous": false,
      "inputs": [
        {
          "indexed": false,
          "internalType": "uint8",
          "name": "winner",
          "type": "uint8"
        },
        {
          "indexed": false,
          "internalType": "uint8",
          "name": "stateSeats",
          "type": "uint8"
        },
        {
          "indexed": false,
          "internalType": "string",
          "name": "state",
          "type": "string"
        }
      ],
      "name": "LogStateResult",
      "type": "event"
    },
    {
      "anonymous": false,
      "inputs": [
        {
          "indexed": true,
          "internalType": "address",
          "name": "previousOwner",
          "type": "address"
        },
        {
          "indexed": true,
          "internalType": "address",
          "name": "newOwner",
          "type": "address"
        }
      ],
      "name": "OwnershipTransferred",
      "type": "event"
    },
    {
      "inputs": [],
      "name": "BIDEN",
      "outputs": [
        {
          "internalType": "uint8",
          "name": "",
          "type": "uint8"
        }
      ],
      "stateMutability": "view",
      "type": "function"
    },
    {
      "inputs": [],
      "name": "TRUMP",
      "outputs": [
        {
          "internalType": "uint8",
          "name": "",
          "type": "uint8"
        }
      ],
      "stateMutability": "view",
      "type": "function"
    },
    {
      "inputs": [],
      "name": "electionEnded",
      "outputs": [
        {
          "internalType": "bool",
          "name": "",
          "type": "bool"
        }
      ],
      "stateMutability": "view",
      "type": "function"
    },
    {
      "inputs": [],
      "name": "owner",
      "outputs": [
        {
          "internalType": "address",
          "name": "",
          "type": "address"
        }
      ],
      "stateMutability": "view",
      "type": "function"
    },
    {
      "inputs": [],
      "name": "renounceOwnership",
      "outputs": [],
      "stateMutability": "nonpayable",
      "type": "function"
    },
    {
      "inputs": [
        {
          "internalType": "string",
          "name": "",
          "type": "string"
        }
      ],
      "name": "resultsSubmitted",
      "outputs": [
        {
          "internalType": "bool",
          "name": "",
          "type": "bool"
        }
      ],
      "stateMutability": "view",
      "type": "function"
    },
    {
      "inputs": [
        {
          "internalType": "uint8",
          "name": "",
          "type": "uint8"
        }
      ],
      "name": "seats",
      "outputs": [
        {
          "internalType": "uint8",
          "name": "",
          "type": "uint8"
        }
      ],
      "stateMutability": "view",
      "type": "function"
    },
    {
      "inputs": [
        {
          "internalType": "address",
          "name": "newOwner",
          "type": "address"
        }
      ],
      "name": "transferOwnership",
      "outputs": [],
      "stateMutability": "nonpayable",
      "type": "function"
    },
    {
      "inputs": [
        {
          "components": [
            {
              "internalType": "string",
              "name": "name",
              "type": "string"
            },
            {
              "internalType": "uint256",
              "name": "votesBiden",
              "type": "uint256"
            },
            {
              "internalType": "uint256",
              "name": "votesTrump",
              "type": "uint256"
            },
            {
              "internalType": "uint8",
              "name": "stateSeats",
              "type": "uint8"
            }
          ],
          "internalType": "struct USElection.StateResult",
          "name": "result",
          "type": "tuple"
        }
      ],
      "name": "submitStateResult",
      "outputs": [],
      "stateMutability": "nonpayable",
      "type": "function"
    },
    {
      "inputs": [],
      "name": "currentLeader",
      "outputs": [
        {
          "internalType": "uint8",
          "name": "",
          "type": "uint8"
        }
      ],
      "stateMutability": "view",
      "type": "function"
    },
    {
      "inputs": [],
      "name": "endElection",
      "outputs": [],
      "stateMutability": "nonpayable",
      "type": "function"
    },
    {
      "inputs": [],
      "name": "resumeElection",
      "outputs": [],
      "stateMutability": "nonpayable",
      "type": "function"
    }
  ],
  "bytecode": "0x608060405234801561001057600080fd5b50600061001b61006a565b600080546001600160a01b0319166001600160a01b0383169081178255604051929350917f8be0079c531659141344cd1fd0a4f28419497f9722a3daafe3b4186f6b6457e0908290a35061006e565b3390565b610bb78061007d6000396000f3fe608060405234801561001057600080fd5b50600436106100b45760003560e01c80638da5cb5b116100715780638da5cb5b14610124578063ac4bd53a14610139578063c94ca9e314610141578063e494a88314610149578063e852a14b1461015c578063f2fde38b14610164576100b4565b80632d78d8e5146100b957806337ad98ec146100d757806359f78468146100f757806369b36bd414610101578063713d87c514610109578063715018a61461011c575b600080fd5b6100c1610177565b6040516100ce9190610acf565b60405180910390f35b6100ea6100e5366004610849565b61017c565b6040516100ce9190610998565b6100ff61019c565b005b6100c1610284565b6100c1610117366004610922565b610289565b6100ff61029e565b61012c61034a565b6040516100ce9190610984565b6100c161035a565b6100ea610428565b6100ff610157366004610884565b610438565b6100ff61064f565b6100ff61017236600461081b565b610685565b600281565b805160208183018101805160028252928201919093012091525460ff1681565b6101a4610787565b6001600160a01b03166101b561034a565b6001600160a01b0316146101fe576040805162461bcd60e51b81526020600482018190526024820152600080516020610b62833981519152604482015290519081900360640190fd5b600054600160a01b900460ff16156102315760405162461bcd60e51b8152600401610228906109eb565b60405180910390fd5b6000805460ff60a01b1916600160a01b1790557faacb23683ec1a0e9b52f9a6264edf58ad322ac62079d65ea7363a2d400f439f461026d61035a565b60405161027a9190610acf565b60405180910390a1565b600181565b60016020526000908152604090205460ff1681565b6102a6610787565b6001600160a01b03166102b761034a565b6001600160a01b031614610300576040805162461bcd60e51b81526020600482018190526024820152600080516020610b62833981519152604482015290519081900360640190fd5b600080546040516001600160a01b03909116907f8be0079c531659141344cd1fd0a4f28419497f9722a3daafe3b4186f6b6457e0908390a3600080546001600160a01b0319169055565b6000546001600160a01b03165b90565b600160208190527fd9d16d34ffb15ba3a3d852f0d403e2ce1d691fb54de27ac87cd2f993f3ec330f5460009182527fcc69885fda6bcc1a4ace058b4a62bf5e179ea78fd58a1ccd71c22cc9b688792f5460ff918216911611156103bf57506001610357565b60016020527fcc69885fda6bcc1a4ace058b4a62bf5e179ea78fd58a1ccd71c22cc9b688792f5460026000527fd9d16d34ffb15ba3a3d852f0d403e2ce1d691fb54de27ac87cd2f993f3ec330f5460ff9182169116111561042257506002610357565b50600090565b600054600160a01b900460ff1681565b610440610787565b6001600160a01b031661045161034a565b6001600160a01b03161461049a576040805162461bcd60e51b81526020600482018190526024820152600080516020610b62833981519152604482015290519081900360640190fd5b600054600160a01b900460ff16156104c45760405162461bcd60e51b8152600401610228906109eb565b7fb0f60f9188b4277012d650d7748a55f39e00d792e7958aebca72f471a6d91ca8816040516104f39190610a86565b60405180910390a16000816060015160ff16116105225760405162461bcd60e51b815260040161022890610a51565b80604001518160200151141561054a5760405162461bcd60e51b815260040161022890610a22565b805160405160029161055b91610968565b9081526040519081900360200190205460ff161561058b5760405162461bcd60e51b8152600401610228906109a3565b60008160400151826020015111156105a5575060016105a9565b5060025b606082015160ff828116600090815260016020819052604091829020805460ff19811690851690950190931693909317909155835190516002916105ec91610968565b908152604051908190036020018120805492151560ff1990931692909217909155606083015183517fa2e71fe38f1afa3762cf9d2ea7bb6a4d272a90fd6f9392f3acedd3b542046b46926106439285929091610add565b60405180910390a15050565b6000805460ff60a01b191690557f3a106ff10a317fb7b858f931f6027390c10709f90b343fc6e93893a7ab20bea061026d61035a565b61068d610787565b6001600160a01b031661069e61034a565b6001600160a01b0316146106e7576040805162461bcd60e51b81526020600482018190526024820152600080516020610b62833981519152604482015290519081900360640190fd5b6001600160a01b03811661072c5760405162461bcd60e51b8152600401808060200182810382526026815260200180610b3c6026913960400191505060405180910390fd5b600080546040516001600160a01b03808516939216917f8be0079c531659141344cd1fd0a4f28419497f9722a3daafe3b4186f6b6457e091a3600080546001600160a01b0319166001600160a01b0392909216919091179055565b3390565b600082601f83011261079b578081fd5b813567ffffffffffffffff808211156107b057fe5b604051601f8301601f1916810160200182811182821017156107ce57fe5b6040528281529250828483016020018610156107e957600080fd5b8260208601602083013760006020848301015250505092915050565b803560ff8116811461081657600080fd5b919050565b60006020828403121561082c578081fd5b81356001600160a01b0381168114610842578182fd5b9392505050565b60006020828403121561085a578081fd5b813567ffffffffffffffff811115610870578182fd5b61087c8482850161078b565b949350505050565b600060208284031215610895578081fd5b813567ffffffffffffffff808211156108ac578283fd5b90830190608082860312156108bf578283fd5b6040516080810181811083821117156108d457fe5b6040528235828111156108e5578485fd5b6108f18782860161078b565b825250602083013560208201526040830135604082015261091460608401610805565b606082015295945050505050565b600060208284031215610933578081fd5b61084282610805565b60008151808452610954816020860160208601610b0b565b601f01601f19169290920160200192915050565b6000825161097a818460208701610b0b565b9190910192915050565b6001600160a01b0391909116815260200190565b901515815260200190565b60208082526028908201527f5468697320737461746520726573756c742077617320616c7265616479207375604082015267626d69747465642160c01b606082015260800190565b6020808252601e908201527f54686520656c656374696f6e2068617320656e64656420616c72656164790000604082015260600190565b60208082526015908201527454686572652063616e6e6f7420626520612074696560581b604082015260600190565b6020808252818101527f537461746573206d7573742068617665206174206c6561737420312073656174604082015260600190565b600060208252825160806020840152610aa260a084018261093c565b9050602084015160408401526040840151606084015260ff60608501511660808401528091505092915050565b60ff91909116815260200190565b600060ff8516825260ff8416602083015260606040830152610b02606083018461093c565b95945050505050565b60005b83811015610b26578181015183820152602001610b0e565b83811115610b35576000848401525b5050505056fe4f776e61626c653a206e6577206f776e657220697320746865207a65726f20616464726573734f776e61626c653a2063616c6c6572206973206e6f7420746865206f776e6572a26469706673582212208d3a552316b3c1f2dbc55da1fc938eeb78cdd80822c1eb57d77e6648ba66538e64736f6c63430007050033",
  "source": "// SPDX-License-Identifier: UNLICENSED\npragma solidity 0.7.5;\npragma experimental ABIEncoderV2;\n\nimport \"@openzeppelin/contracts/access/Ownable.sol\";\n\ncontract USElection is Ownable {\n    uint8 public constant BIDEN = 1;\n    uint8 public constant TRUMP = 2;\n\n    bool public electionEnded;\n\n    mapping(uint8 => uint8) public seats;\n    mapping(string => bool) public resultsSubmitted;\n\n    struct StateResult {\n        string name;\n        uint256 votesBiden;\n        uint256 votesTrump;\n        uint8 stateSeats;\n    }\n\n    event LogElectionResumed(uint256 currentWinner);\n    event LogElectionEnded(uint256 winner);\n    event LogStateResult(uint8 winner, uint8 stateSeats, string state);\n    event LogReceivedData(StateResult data);\n\n    function submitStateResult(StateResult memory result) public onlyOwner onlyActiveElection {\n        emit LogReceivedData(result);\n        require(result.stateSeats > 0, \"States must have at least 1 seat\");\n        require(\n            result.votesBiden != result.votesTrump,\n            \"There cannot be a tie\"\n        );\n        require(\n            !resultsSubmitted[result.name],\n            \"This state result was already submitted!\"\n        );\n\n        uint8 winner;\n        if (result.votesBiden > result.votesTrump) {\n            winner = BIDEN;\n        } else {\n            winner = TRUMP;\n        }\n\n        seats[winner] += result.stateSeats;\n        resultsSubmitted[result.name] = true;\n\n        emit LogStateResult(winner, result.stateSeats, result.name);\n    }\n\n    function currentLeader() public view returns (uint8) {\n        if (seats[BIDEN] > seats[TRUMP]) {\n            return BIDEN;\n        }\n        if (seats[TRUMP] > seats[BIDEN]) {\n            return TRUMP;\n        }\n        return 0;\n    }\n\n    function endElection() public onlyOwner onlyActiveElection {\n        electionEnded = true;\n        emit LogElectionEnded(currentLeader());\n    }\n\n    function resumeElection() public {\n        electionEnded = false;\n        emit LogElectionResumed(currentLeader());\n    }\n\n    modifier onlyActiveElection() {\n        require(!electionEnded, \"The election has ended already\");\n        _;\n    }\n}\n",
  "sourcePath": "/Users/milenaatanasova/Documents/onboarding/LimeChain-onboarding/Web3-training/contracts/USElection.sol",
  "compiler": {
    "name": "solc",
    "version": "0.7.5+commit.eb77ed08.Emscripten.clang",
    "optimizer": true,
    "runs": 200
  },
  "schemaVersion": "2.3.5",
  "updatedAt": "2021-04-21T10:11:33.343Z"
}